{
  "_format": "hh-sol-artifact-1",
  "contractName": "ArtGallery",
  "sourceName": "contracts/ArtGallery.sol",
  "abi": [
    {
      "inputs": [],
      "stateMutability": "nonpayable",
      "type": "constructor"
    },
    {
      "anonymous": false,
      "inputs": [
        {
          "indexed": true,
          "internalType": "address",
          "name": "from",
          "type": "address"
        },
        {
          "indexed": true,
          "internalType": "address",
          "name": "to",
          "type": "address"
        },
        {
          "indexed": true,
          "internalType": "uint256",
          "name": "tokenId",
          "type": "uint256"
        }
      ],
      "name": "Transfer",
      "type": "event"
    },
    {
      "inputs": [],
      "name": "admin",
      "outputs": [
        {
          "internalType": "address",
          "name": "",
          "type": "address"
        }
      ],
      "stateMutability": "view",
      "type": "function"
    },
    {
      "inputs": [
        {
          "internalType": "address",
          "name": "owner",
          "type": "address"
        }
      ],
      "name": "balanceOf",
      "outputs": [
        {
          "internalType": "uint256",
          "name": "",
          "type": "uint256"
        }
      ],
      "stateMutability": "view",
      "type": "function"
    },
    {
      "inputs": [
        {
          "internalType": "uint256",
          "name": "tokenId",
          "type": "uint256"
        }
      ],
      "name": "ownerOf",
      "outputs": [
        {
          "internalType": "address",
          "name": "",
          "type": "address"
        }
      ],
      "stateMutability": "view",
      "type": "function"
    },
    {
      "inputs": [
        {
          "internalType": "address",
          "name": "to",
          "type": "address"
        }
      ],
      "name": "safeMint",
      "outputs": [],
      "stateMutability": "nonpayable",
      "type": "function"
    }
  ],
  "bytecode": "0x608060405234801561001057600080fd5b5033600360006101000a81548173ffffffffffffffffffffffffffffffffffffffff021916908373ffffffffffffffffffffffffffffffffffffffff1602179055506105bc806100616000396000f3fe608060405234801561001057600080fd5b506004361061004c5760003560e01c806340d097c3146100515780636352211e1461006d57806370a082311461009d578063f851a440146100cd575b600080fd5b61006b600480360381019061006691906103ae565b6100eb565b005b61008760048036038101906100829190610411565b6102a0565b604051610094919061044d565b60405180910390f35b6100b760048036038101906100b291906103ae565b6102dc565b6040516100c49190610477565b60405180910390f35b6100d5610325565b6040516100e2919061044d565b60405180910390f35b600360009054906101000a900473ffffffffffffffffffffffffffffffffffffffff1673ffffffffffffffffffffffffffffffffffffffff163373ffffffffffffffffffffffffffffffffffffffff161461017b576040517f08c379a0000000000000000000000000000000000000000000000000000000008152600401610172906104ef565b60405180910390fd5b60006002549050600260008154809291906101959061053e565b91905055508160008083815260200190815260200160002060006101000a81548173ffffffffffffffffffffffffffffffffffffffff021916908373ffffffffffffffffffffffffffffffffffffffff160217905550600160008373ffffffffffffffffffffffffffffffffffffffff1673ffffffffffffffffffffffffffffffffffffffff168152602001908152602001600020600081548092919061023b9061053e565b9190505550808273ffffffffffffffffffffffffffffffffffffffff16600073ffffffffffffffffffffffffffffffffffffffff167fddf252ad1be2c89b69c2b068fc378daa952ba7f163c4a11628f55a4df523b3ef60405160405180910390a45050565b600080600083815260200190815260200160002060009054906101000a900473ffffffffffffffffffffffffffffffffffffffff169050919050565b6000600160008373ffffffffffffffffffffffffffffffffffffffff1673ffffffffffffffffffffffffffffffffffffffff168152602001908152602001600020549050919050565b600360009054906101000a900473ffffffffffffffffffffffffffffffffffffffff1681565b600080fd5b600073ffffffffffffffffffffffffffffffffffffffff82169050919050565b600061037b82610350565b9050919050565b61038b81610370565b811461039657600080fd5b50565b6000813590506103a881610382565b92915050565b6000602082840312156103c4576103c361034b565b5b60006103d284828501610399565b91505092915050565b6000819050919050565b6103ee816103db565b81146103f957600080fd5b50565b60008135905061040b816103e5565b92915050565b6000602082840312156104275761042661034b565b5b6000610435848285016103fc565b91505092915050565b61044781610370565b82525050565b6000602082019050610462600083018461043e565b92915050565b610471816103db565b82525050565b600060208201905061048c6000830184610468565b92915050565b600082825260208201905092915050565b7f4f6e6c792061646d696e2063616e206d696e7400000000000000000000000000600082015250565b60006104d9601383610492565b91506104e4826104a3565b602082019050919050565b60006020820190508181036000830152610508816104cc565b9050919050565b7f4e487b7100000000000000000000000000000000000000000000000000000000600052601160045260246000fd5b6000610549826103db565b91507fffffffffffffffffffffffffffffffffffffffffffffffffffffffffffffffff820361057b5761057a61050f565b5b60018201905091905056fea26469706673582212201a65a4ee5937d6280e38e30b3810565d83816629ffe3c22f66cefd082fd73e3664736f6c63430008130033",
  "linkReferences": {},
  "deployedLinkReferences": {}
}